{
  "_format": "hh-sol-artifact-1",
  "contractName": "AaveLoopStrategy",
  "sourceName": "contracts/ModifiedAaveLoopStrategy.sol",
  "abi": [
    {
      "inputs": [],
      "stateMutability": "nonpayable",
      "type": "constructor"
    },
    {
      "inputs": [
        {
          "internalType": "address",
          "name": "token",
          "type": "address"
        }
      ],
      "name": "SafeERC20FailedOperation",
      "type": "error"
    },
    {
      "anonymous": false,
      "inputs": [
        {
          "indexed": false,
          "internalType": "uint256",
          "name": "totalCollateral",
          "type": "uint256"
        },
        {
          "indexed": false,
          "internalType": "uint256",
          "name": "totalDebt",
          "type": "uint256"
        }
      ],
      "name": "EmergencyExitExecuted",
      "type": "event"
    },
    {
      "anonymous": false,
      "inputs": [
        {
          "indexed": false,
          "internalType": "uint256",
          "name": "loopNumber",
          "type": "uint256"
        },
        {
          "indexed": false,
          "internalType": "uint256",
          "name": "borrowedAmount",
          "type": "uint256"
        },
        {
          "indexed": false,
          "internalType": "uint256",
          "name": "swappedAmount",
          "type": "uint256"
        }
      ],
      "name": "LoopExecuted",
      "type": "event"
    },
    {
      "anonymous": false,
      "inputs": [
        {
          "indexed": false,
          "internalType": "uint256",
          "name": "loopNumber",
          "type": "uint256"
        },
        {
          "indexed": false,
          "internalType": "string",
          "name": "reason",
          "type": "string"
        }
      ],
      "name": "LoopFailed",
      "type": "event"
    },
    {
      "inputs": [],
      "name": "POOL_ADDRESSES_PROVIDER",
      "outputs": [
        {
          "internalType": "address",
          "name": "",
          "type": "address"
        }
      ],
      "stateMutability": "view",
      "type": "function"
    },
    {
      "inputs": [],
      "name": "POOL_FEE",
      "outputs": [
        {
          "internalType": "uint24",
          "name": "",
          "type": "uint24"
        }
      ],
      "stateMutability": "view",
      "type": "function"
    },
    {
      "inputs": [],
      "name": "SAFETY_FACTOR",
      "outputs": [
        {
          "internalType": "uint256",
          "name": "",
          "type": "uint256"
        }
      ],
      "stateMutability": "view",
      "type": "function"
    },
    {
      "inputs": [],
      "name": "SLIPPAGE",
      "outputs": [
        {
          "internalType": "uint256",
          "name": "",
          "type": "uint256"
        }
      ],
      "stateMutability": "view",
      "type": "function"
    },
    {
      "inputs": [],
      "name": "UNISWAP_ROUTER",
      "outputs": [
        {
          "internalType": "address",
          "name": "",
          "type": "address"
        }
      ],
      "stateMutability": "view",
      "type": "function"
    },
    {
      "inputs": [],
      "name": "USDC",
      "outputs": [
        {
          "internalType": "address",
          "name": "",
          "type": "address"
        }
      ],
      "stateMutability": "view",
      "type": "function"
    },
    {
      "inputs": [],
      "name": "WETH",
      "outputs": [
        {
          "internalType": "address",
          "name": "",
          "type": "address"
        }
      ],
      "stateMutability": "view",
      "type": "function"
    },
    {
      "inputs": [],
      "name": "emergencyExit",
      "outputs": [],
      "stateMutability": "nonpayable",
      "type": "function"
    },
    {
      "inputs": [
        {
          "internalType": "uint256",
          "name": "borrowAmount",
          "type": "uint256"
        },
        {
          "internalType": "uint256",
          "name": "numLoops",
          "type": "uint256"
        }
      ],
      "name": "executeLoop",
      "outputs": [],
      "stateMutability": "payable",
      "type": "function"
    },
    {
      "inputs": [],
      "name": "getPosition",
      "outputs": [
        {
          "internalType": "uint256",
          "name": "totalCollateral",
          "type": "uint256"
        },
        {
          "internalType": "uint256",
          "name": "totalDebt",
          "type": "uint256"
        },
        {
          "internalType": "uint256",
          "name": "availableBorrows",
          "type": "uint256"
        },
        {
          "internalType": "uint256",
          "name": "currentLiquidationThreshold",
          "type": "uint256"
        },
        {
          "internalType": "uint256",
          "name": "ltv",
          "type": "uint256"
        },
        {
          "internalType": "uint256",
          "name": "healthFactor",
          "type": "uint256"
        }
      ],
      "stateMutability": "view",
      "type": "function"
    },
    {
      "inputs": [],
      "name": "lendingPool",
      "outputs": [
        {
          "internalType": "contract IPool",
          "name": "",
          "type": "address"
        }
      ],
      "stateMutability": "view",
      "type": "function"
    },
    {
      "inputs": [],
      "name": "swapRouter",
      "outputs": [
        {
          "internalType": "contract ISwapRouter",
          "name": "",
          "type": "address"
        }
      ],
      "stateMutability": "view",
      "type": "function"
    },
    {
      "inputs": [],
      "name": "weth",
      "outputs": [
        {
          "internalType": "contract IWETH9",
          "name": "",
          "type": "address"
        }
      ],
      "stateMutability": "view",
      "type": "function"
    },
    {
      "stateMutability": "payable",
      "type": "receive"
    }
  ],
  "bytecode": "0x60e06040523480156200001157600080fd5b50600073d449fed49d9c443688d6816fe6872f21402e41de90508073ffffffffffffffffffffffffffffffffffffffff1663026b1d5f6040518163ffffffff1660e01b8152600401602060405180830381865afa15801562000077573d6000803e3d6000fd5b505050506040513d601f19601f820116820180604052508101906200009d9190620001d1565b73ffffffffffffffffffffffffffffffffffffffff1660808173ffffffffffffffffffffffffffffffffffffffff16815250507394cc0aac535ccdb3c01d6787d6413c739ae12bc473ffffffffffffffffffffffffffffffffffffffff1660a08173ffffffffffffffffffffffffffffffffffffffff168152505073420000000000000000000000000000000000000673ffffffffffffffffffffffffffffffffffffffff1660c08173ffffffffffffffffffffffffffffffffffffffff16815250505062000203565b600080fd5b600073ffffffffffffffffffffffffffffffffffffffff82169050919050565b600062000199826200016c565b9050919050565b620001ab816200018c565b8114620001b757600080fd5b50565b600081519050620001cb81620001a0565b92915050565b600060208284031215620001ea57620001e962000167565b5b6000620001fa84828501620001ba565b91505092915050565b60805160a05160c0516120096200028e6000396000818161039a01528181610c3d0152610f42015260008181610a8201526112a001526000818161044b0152818161051e01528181610688015281816107420152818161088201528181610b2001528181610c6401528181610d0f01528181610dd10152818161119e015261126401526120096000f3fe6080604052600436106100c65760003560e01c80637398ab181161007f578063ad5c464811610059578063ad5c464814610237578063c31c9c0714610262578063d82649201461028d578063dd1b9c4a146102b8576100cd565b80637398ab18146101b157806389a30271146101e1578063a59a99731461020c576100cd565b8063311cd5a4146100d257806331e7696d146100fd57806336b4134a1461012857806338435b54146101535780633fc8cef31461016f5780635641ec031461019a576100cd565b366100cd57005b600080fd5b3480156100de57600080fd5b506100e76102e3565b6040516100f49190611442565b60405180910390f35b34801561010957600080fd5b506101126102fb565b60405161011f9190611476565b60405180910390f35b34801561013457600080fd5b5061013d610300565b60405161014a9190611476565b60405180910390f35b61016d600480360381019061016891906114cc565b610305565b005b34801561017b57600080fd5b50610184610c3b565b604051610191919061156b565b60405180910390f35b3480156101a657600080fd5b506101af610c5f565b005b3480156101bd57600080fd5b506101c6611193565b6040516101d896959493929190611586565b60405180910390f35b3480156101ed57600080fd5b506101f661124a565b6040516102039190611442565b60405180910390f35b34801561021857600080fd5b50610221611262565b60405161022e9190611608565b60405180910390f35b34801561024357600080fd5b5061024c611286565b6040516102599190611442565b60405180910390f35b34801561026e57600080fd5b5061027761129e565b6040516102849190611644565b60405180910390f35b34801561029957600080fd5b506102a26112c2565b6040516102af9190611442565b60405180910390f35b3480156102c457600080fd5b506102cd6112da565b6040516102da919061167d565b60405180910390f35b73d449fed49d9c443688d6816fe6872f21402e41de81565b605081565b603281565b600081118015610316575060058111155b610355576040517f08c379a000000000000000000000000000000000000000000000000000000000815260040161034c906116f5565b60405180910390fd5b60003411610398576040517f08c379a000000000000000000000000000000000000000000000000000000000815260040161038f90611761565b60405180910390fd5b7f000000000000000000000000000000000000000000000000000000000000000073ffffffffffffffffffffffffffffffffffffffff1663d0e30db0346040518263ffffffff1660e01b81526004016000604051808303818588803b15801561040057600080fd5b505af1158015610414573d6000803e3d6000fd5b505050505073420000000000000000000000000000000000000673ffffffffffffffffffffffffffffffffffffffff1663095ea7b37f00000000000000000000000000000000000000000000000000000000000000007fffffffffffffffffffffffffffffffffffffffffffffffffffffffffffffffff6040518363ffffffff1660e01b81526004016104a8929190611781565b6020604051808303816000875af11580156104c7573d6000803e3d6000fd5b505050506040513d601f19601f820116820180604052508101906104eb91906117e2565b5073036cbd53842c5426634e7929541ec2318f3dcf7e73ffffffffffffffffffffffffffffffffffffffff1663095ea7b37f00000000000000000000000000000000000000000000000000000000000000007fffffffffffffffffffffffffffffffffffffffffffffffffffffffffffffffff6040518363ffffffff1660e01b815260040161057b929190611781565b6020604051808303816000875af115801561059a573d6000803e3d6000fd5b505050506040513d601f19601f820116820180604052508101906105be91906117e2565b5073036cbd53842c5426634e7929541ec2318f3dcf7e73ffffffffffffffffffffffffffffffffffffffff1663095ea7b37394cc0aac535ccdb3c01d6787d6413c739ae12bc47fffffffffffffffffffffffffffffffffffffffffffffffffffffffffffffffff6040518363ffffffff1660e01b8152600401610642929190611781565b6020604051808303816000875af1158015610661573d6000803e3d6000fd5b505050506040513d601f19601f8201168201806040525081019061068591906117e2565b507f000000000000000000000000000000000000000000000000000000000000000073ffffffffffffffffffffffffffffffffffffffff1663617ba037734200000000000000000000000000000000000006343060006040518563ffffffff1660e01b81526004016106fa9493929190611858565b600060405180830381600087803b15801561071457600080fd5b505af1158015610728573d6000803e3d6000fd5b5050505060005b81811015610c36576000806000806000807f000000000000000000000000000000000000000000000000000000000000000073ffffffffffffffffffffffffffffffffffffffff1663bf92857c306040518263ffffffff1660e01b81526004016107999190611442565b60c060405180830381865afa1580156107b6573d6000803e3d6000fd5b505050506040513d601f19601f820116820180604052508101906107da91906118b2565b955095509550955095509550670e92596fd6290000811015610831576040517f08c379a00000000000000000000000000000000000000000000000000000000081526004016108289061198b565b60405180910390fd5b620f4240891015610877576040517f08c379a000000000000000000000000000000000000000000000000000000000815260040161086e906119f7565b60405180910390fd5b6000891115610c12577f000000000000000000000000000000000000000000000000000000000000000073ffffffffffffffffffffffffffffffffffffffff1663a415bcad73036cbd53842c5426634e7929541ec2318f3dcf7e8b60026000306040518663ffffffff1660e01b81526004016108f7959493929190611a52565b600060405180830381600087803b15801561091157600080fd5b505af1925050508015610922575060015b6109aa5761092e611ab2565b806308c379a00361099e5750610942611b45565b8061094d57506109a0565b7ff5e008dc4e6d7eca56c27d4defd551e2f5a55c63872e76e4b3a799948661385f60018961097b9190611c04565b8260405161098a929190611ca6565b60405180910390a150505050505050610c36565b505b3d6000803e3d6000fd5b600060405180610100016040528073036cbd53842c5426634e7929541ec2318f3dcf7e73ffffffffffffffffffffffffffffffffffffffff16815260200173420000000000000000000000000000000000000673ffffffffffffffffffffffffffffffffffffffff168152602001610bb862ffffff1681526020013073ffffffffffffffffffffffffffffffffffffffff16815260200161012c42610a4f9190611c04565b81526020018b815260200160008152602001600073ffffffffffffffffffffffffffffffffffffffff16815250905060007f000000000000000000000000000000000000000000000000000000000000000073ffffffffffffffffffffffffffffffffffffffff1663414bf389836040518263ffffffff1660e01b8152600401610ad99190611db4565b6020604051808303816000875af1158015610af8573d6000803e3d6000fd5b505050506040513d601f19601f82011682018060405250810190610b1c9190611dd0565b90507f000000000000000000000000000000000000000000000000000000000000000073ffffffffffffffffffffffffffffffffffffffff1663617ba037734200000000000000000000000000000000000006833060006040518563ffffffff1660e01b8152600401610b929493929190611858565b600060405180830381600087803b158015610bac57600080fd5b505af1158015610bc0573d6000803e3d6000fd5b505050507f45393b0809f9dd39820d97a0651d79342704ba175415eca73cef29f131f0101260018a610bf29190611c04565b8c83604051610c0393929190611dfd565b60405180910390a15050610c1d565b505050505050610c36565b5050505050508080610c2e90611e34565b91505061072f565b505050565b7f000000000000000000000000000000000000000000000000000000000000000081565b6000807f000000000000000000000000000000000000000000000000000000000000000073ffffffffffffffffffffffffffffffffffffffff1663bf92857c306040518263ffffffff1660e01b8152600401610cbb9190611442565b60c060405180830381865afa158015610cd8573d6000803e3d6000fd5b505050506040513d601f19601f82011682018060405250810190610cfc91906118b2565b50505050915091506000811115610dc6577f000000000000000000000000000000000000000000000000000000000000000073ffffffffffffffffffffffffffffffffffffffff1663573ade8173036cbd53842c5426634e7929541ec2318f3dcf7e836002306040518563ffffffff1660e01b8152600401610d819493929190611e7c565b6020604051808303816000875af1158015610da0573d6000803e3d6000fd5b505050506040513d601f19601f82011682018060405250810190610dc49190611dd0565b505b6000821115610ea5577f000000000000000000000000000000000000000000000000000000000000000073ffffffffffffffffffffffffffffffffffffffff166369328dec7342000000000000000000000000000000000000067fffffffffffffffffffffffffffffffffffffffffffffffffffffffffffffffff306040518463ffffffff1660e01b8152600401610e6093929190611ec1565b6020604051808303816000875af1158015610e7f573d6000803e3d6000fd5b505050506040513d601f19601f82011682018060405250810190610ea39190611dd0565b505b600073420000000000000000000000000000000000000673ffffffffffffffffffffffffffffffffffffffff166370a08231306040518263ffffffff1660e01b8152600401610ef49190611442565b602060405180830381865afa158015610f11573d6000803e3d6000fd5b505050506040513d601f19601f82011682018060405250810190610f359190611dd0565b90506000811115611079577f000000000000000000000000000000000000000000000000000000000000000073ffffffffffffffffffffffffffffffffffffffff16632e1a7d4d826040518263ffffffff1660e01b8152600401610f999190611476565b600060405180830381600087803b158015610fb357600080fd5b505af1158015610fc7573d6000803e3d6000fd5b5050505060003373ffffffffffffffffffffffffffffffffffffffff1647604051610ff190611f29565b60006040518083038185875af1925050503d806000811461102e576040519150601f19603f3d011682016040523d82523d6000602084013e611033565b606091505b5050905080611077576040517f08c379a000000000000000000000000000000000000000000000000000000000815260040161106e90611f8a565b60405180910390fd5b505b600073036cbd53842c5426634e7929541ec2318f3dcf7e73ffffffffffffffffffffffffffffffffffffffff166370a08231306040518263ffffffff1660e01b81526004016110c89190611442565b602060405180830381865afa1580156110e5573d6000803e3d6000fd5b505050506040513d601f19601f820116820180604052508101906111099190611dd0565b9050600081111561115457611153338273036cbd53842c5426634e7929541ec2318f3dcf7e73ffffffffffffffffffffffffffffffffffffffff166112e09092919063ffffffff16565b5b7fdabab41b8bfa7c3286f270562d77e7401c2ea89b05d6d4ee47fec024e571d8e18484604051611185929190611faa565b60405180910390a150505050565b6000806000806000807f000000000000000000000000000000000000000000000000000000000000000073ffffffffffffffffffffffffffffffffffffffff1663bf92857c306040518263ffffffff1660e01b81526004016111f59190611442565b60c060405180830381865afa158015611212573d6000803e3d6000fd5b505050506040513d601f19601f8201168201806040525081019061123691906118b2565b955095509550955095509550909192939495565b73036cbd53842c5426634e7929541ec2318f3dcf7e81565b7f000000000000000000000000000000000000000000000000000000000000000081565b73420000000000000000000000000000000000000681565b7f000000000000000000000000000000000000000000000000000000000000000081565b7394cc0aac535ccdb3c01d6787d6413c739ae12bc481565b610bb881565b61135a838473ffffffffffffffffffffffffffffffffffffffff1663a9059cbb8585604051602401611313929190611781565b604051602081830303815290604052915060e01b6020820180517bffffffffffffffffffffffffffffffffffffffffffffffffffffffff838183161783525050505061135f565b505050565b600080602060008451602086016000885af180611382576040513d6000823e3d81fd5b3d92506000519150506000821461139d5760018114156113b9565b60008473ffffffffffffffffffffffffffffffffffffffff163b145b156113fb57836040517f5274afe70000000000000000000000000000000000000000000000000000000081526004016113f29190611442565b60405180910390fd5b50505050565b600073ffffffffffffffffffffffffffffffffffffffff82169050919050565b600061142c82611401565b9050919050565b61143c81611421565b82525050565b60006020820190506114576000830184611433565b92915050565b6000819050919050565b6114708161145d565b82525050565b600060208201905061148b6000830184611467565b92915050565b6000604051905090565b600080fd5b6114a98161145d565b81146114b457600080fd5b50565b6000813590506114c6816114a0565b92915050565b600080604083850312156114e3576114e261149b565b5b60006114f1858286016114b7565b9250506020611502858286016114b7565b9150509250929050565b6000819050919050565b600061153161152c61152784611401565b61150c565b611401565b9050919050565b600061154382611516565b9050919050565b600061155582611538565b9050919050565b6115658161154a565b82525050565b6000602082019050611580600083018461155c565b92915050565b600060c08201905061159b6000830189611467565b6115a86020830188611467565b6115b56040830187611467565b6115c26060830186611467565b6115cf6080830185611467565b6115dc60a0830184611467565b979650505050505050565b60006115f282611538565b9050919050565b611602816115e7565b82525050565b600060208201905061161d60008301846115f9565b92915050565b600061162e82611538565b9050919050565b61163e81611623565b82525050565b60006020820190506116596000830184611635565b92915050565b600062ffffff82169050919050565b6116778161165f565b82525050565b6000602082019050611692600083018461166e565b92915050565b600082825260208201905092915050565b7f496e76616c6964206e756d626572206f66206c6f6f7073000000000000000000600082015250565b60006116df601783611698565b91506116ea826116a9565b602082019050919050565b6000602082019050818103600083015261170e816116d2565b9050919050565b7f4d7573742070726f766964652045544800000000000000000000000000000000600082015250565b600061174b601083611698565b915061175682611715565b602082019050919050565b6000602082019050818103600083015261177a8161173e565b9050919050565b60006040820190506117966000830185611433565b6117a36020830184611467565b9392505050565b60008115159050919050565b6117bf816117aa565b81146117ca57600080fd5b50565b6000815190506117dc816117b6565b92915050565b6000602082840312156117f8576117f761149b565b5b6000611806848285016117cd565b91505092915050565b6000819050919050565b600061ffff82169050919050565b600061184261183d6118388461180f565b61150c565b611819565b9050919050565b61185281611827565b82525050565b600060808201905061186d6000830187611433565b61187a6020830186611467565b6118876040830185611433565b6118946060830184611849565b95945050505050565b6000815190506118ac816114a0565b92915050565b60008060008060008060c087890312156118cf576118ce61149b565b5b60006118dd89828a0161189d565b96505060206118ee89828a0161189d565b95505060406118ff89828a0161189d565b945050606061191089828a0161189d565b935050608061192189828a0161189d565b92505060a061193289828a0161189d565b9150509295509295509295565b7f4865616c746820666163746f7220746f6f206c6f770000000000000000000000600082015250565b6000611975601583611698565b91506119808261193f565b602082019050919050565b600060208201905081810360008301526119a481611968565b9050919050565b7f426f72726f7720616d6f756e7420746f6f20736d616c6c000000000000000000600082015250565b60006119e1601783611698565b91506119ec826119ab565b602082019050919050565b60006020820190508181036000830152611a10816119d4565b9050919050565b6000819050919050565b6000611a3c611a37611a3284611a17565b61150c565b61145d565b9050919050565b611a4c81611a21565b82525050565b600060a082019050611a676000830188611433565b611a746020830187611467565b611a816040830186611a43565b611a8e6060830185611849565b611a9b6080830184611433565b9695505050505050565b60008160e01c9050919050565b600060033d1115611ad15760046000803e611ace600051611aa5565b90505b90565b6000601f19601f8301169050919050565b7f4e487b7100000000000000000000000000000000000000000000000000000000600052604160045260246000fd5b611b1d82611ad4565b810181811067ffffffffffffffff82111715611b3c57611b3b611ae5565b5b80604052505050565b600060443d10611bd257611b57611491565b60043d036004823e80513d602482011167ffffffffffffffff82111715611b7f575050611bd2565b808201805167ffffffffffffffff811115611b9d5750505050611bd2565b80602083010160043d038501811115611bba575050505050611bd2565b611bc982602001850186611b14565b82955050505050505b90565b7f4e487b7100000000000000000000000000000000000000000000000000000000600052601160045260246000fd5b6000611c0f8261145d565b9150611c1a8361145d565b9250828201905080821115611c3257611c31611bd5565b5b92915050565b600081519050919050565b60005b83811015611c61578082015181840152602081019050611c46565b60008484015250505050565b6000611c7882611c38565b611c828185611698565b9350611c92818560208601611c43565b611c9b81611ad4565b840191505092915050565b6000604082019050611cbb6000830185611467565b8181036020830152611ccd8184611c6d565b90509392505050565b611cdf81611421565b82525050565b611cee8161165f565b82525050565b611cfd8161145d565b82525050565b611d0c81611401565b82525050565b61010082016000820151611d296000850182611cd6565b506020820151611d3c6020850182611cd6565b506040820151611d4f6040850182611ce5565b506060820151611d626060850182611cd6565b506080820151611d756080850182611cf4565b5060a0820151611d8860a0850182611cf4565b5060c0820151611d9b60c0850182611cf4565b5060e0820151611dae60e0850182611d03565b50505050565b600061010082019050611dca6000830184611d12565b92915050565b600060208284031215611de657611de561149b565b5b6000611df48482850161189d565b91505092915050565b6000606082019050611e126000830186611467565b611e1f6020830185611467565b611e2c6040830184611467565b949350505050565b6000611e3f8261145d565b91507fffffffffffffffffffffffffffffffffffffffffffffffffffffffffffffffff8203611e7157611e70611bd5565b5b600182019050919050565b6000608082019050611e916000830187611433565b611e9e6020830186611467565b611eab6040830185611a43565b611eb86060830184611433565b95945050505050565b6000606082019050611ed66000830186611433565b611ee36020830185611467565b611ef06040830184611433565b949350505050565b600081905092915050565b50565b6000611f13600083611ef8565b9150611f1e82611f03565b600082019050919050565b6000611f3482611f06565b9150819050919050565b7f455448207472616e73666572206661696c656400000000000000000000000000600082015250565b6000611f74601383611698565b9150611f7f82611f3e565b602082019050919050565b60006020820190508181036000830152611fa381611f67565b9050919050565b6000604082019050611fbf6000830185611467565b611fcc6020830184611467565b939250505056fea2646970667358221220b25de4431f6f5b5deab13123e880d25c5723eed654a419da5ee27cccc11031ad64736f6c63430008140033",
  "linkReferences": {},
  "deployedLinkReferences": {}
}